:020000040800F2
:10000000E80900204D020008B51C00088919000805
:10001000C9190008A9040008111F00080000000009
:100020000000000000000000000000002D1D00087E
:10003000ED04000800000000B71C00082F1D000898
:1000400067020008670200086702000867020008EC
:1000500067020008670200086702000867020008DC
:1000600067020008670200086702000867020008CC
:1000700067020008670200086702000867020008BC
:10008000670200086702000867020008B904000858
:10009000AD04000867020008670200086702000854
:1000A000670200086702000867020008670200088C
:1000B000670200086702000867020008670200087C
:1000C000670200086702000867020008670200086C
:1000D000670200086702000867020008670200085C
:1000E000670200086702000867020008670200084C
:1000F000670200086702000867020008670200083C
:10010000670200086702000867020008670200082B
:10011000670200086702000867020008670200081B
:10012000670200086702000867020008670200080B
:1001300067020008670200086702000867020008FB
:1001400067020008670200086702000867020008EB
:10015000670200086702000867020008051F000820
:1001600067020008670200086702000867020008CB
:10017000670200086702000867020008000000002C
:1001800067020008670200086702000867020008AB
:10019000670200086702000867020008670200089B
:1001A00000000000000000006702000800F002F8F4
:1001B00000F03CF80AA090E8000C82448344AAF1C5
:1001C0000107DA4501D100F031F8AFF2090EBAE8C3
:1001D0000F0013F0010F18BFFB1A43F0010318477B
:1001E000681F0000881F0000103A24BF78C878C13B
:1001F000FAD8520724BF30C830C144BF04680C602D
:10020000704700000023002400250026103A28BF74
:1002100078C1FBD8520728BF30C148BF0B60704778
:100220001FB501F083FF1FBD10B510BD00F006F92A
:100230001146FFF7F5FF01F001FF00F024F903B4C8
:10024000FFF7F2FF03BC00F029F9000009488047DE
:1002500009480047FEE7FEE7FEE7FEE7FEE7FEE7A8
:10026000FEE7FEE7FEE7FEE704480549054A064BC0
:1002700070470000D51D0008AD010008E80300200C
:10028000E8090020E8050020E805002053EA020CF8
:1002900000F069802DE9F04B4FF00006002B1FBFE6
:1002A000B3FA83F503FA05F424FA05F65E4012BFAB
:1002B0001643B2FA82F502FA05F4C5F120051EBF15
:1002C00022FA05FC44EA0C04203556EA044C4FEAB5
:1002D000144418BF641C4FF000084FF0000990420E
:1002E00071EB030C39D3002919BFB1FA81F701FA78
:1002F00007F6B0FA80F700FA07F6C7F120071EBF2D
:1003000020FA07FC46EA0C062037B6FBF4FCA7EB04
:100310000507103F07F01F0BCBF120060CFA0BFB73
:100320002CFA06F644BFB3460026202FA4BF5E4633
:100330004FF0000B5BEA060C08BF4FF0010B19EB06
:100340000B09ABFB027C48EB0608C01B06FB02CC8A
:100350000BFB03CC71EB0C01C1E70B460246414697
:100360004846BDE8F08B13B54FF000004FF0000198
:10037000AFF30080BDE81C40704710B5203AC0F0D4
:100380000B80B1E81850203AA0E81850B1E8185096
:10039000A0E81850BFF4F5AF5FEA027C24BFB1E8D3
:1003A0001850A0E8185044BF18C918C0BDE8104044
:1003B0005FEA827C24BF51F8043B40F8043B08BF4D
:1003C0007047D20728BF31F8023B48BF11F8012B14
:1003D00028BF20F8023B48BF00F8012B70474FF0C0
:1003E000000200B5134694469646203922BFA0E885
:1003F0000C50A0E80C50B1F12001BFF4F7AF090791
:1004000028BFA0E80C5048BF0CC05DF804EB890081
:1004100028BF40F8042B08BF704748BF20F8022BC4
:1004200011F0804F18BF00F8012B704770477047DC
:100430007047000000487047880300207546FFF7AA
:10044000F9FFAE4605006946534620F00700854691
:1004500018B020B5FFF708FFBDE820404FF00006B8
:100460004FF000074FF000084FF0000B21F007019C
:10047000AC46ACE8C009ACE8C009ACE8C009ACE8DF
:10048000C0098D46704710B50446AFF30080204682
:10049000BDE81040FFF7D3BE7047000001491820A7
:1004A000ABBEFEE726000200FEE70000014800F0B8
:1004B0008BB900001C030020014800F085B9000042
:1004C0001C03002010B501F061FA00F0EFF80648B7
:1004D00000F006FB044800F003FCBDE810400221D8
:1004E000014800F049B800001C030020704772B6B4
:1004F000FEE7000000B50398011400B2081A00EEF0
:10050000100AB8EEC00A01F0CDFB10EE101A164A20
:10051000914217DD00EE100AB8EEC00A01F0C2FBEE
:1005200000EE900AB8EEE01AC1EE000A00EE100AE2
:100530009FED0E1AB8EEC00A00EEC10ABDEEC00A69
:1005400010EE100ADFED0A0AB3EE031A00EE100AED
:10055000B8EEC00A20EE200AC0EE010A9FED050A9F
:1005600020EE800A00BD000000007A450000004631
:100570000000B4430000003990F82020012A07D081
:10058000022A05D0416A41F480214162012070476E
:10059000006842690A4342610020704710B590F834
:1005A0002020012A07D0022A05D0416A41F4802187
:1005B0004162012010BD3B48D0F8002242F0010208
:1005C000C0F80022D0F8002222F47C52C0F80022A9
:1005D000D0F800224B6A42EA0322C0F800220A7DCA
:1005E00002F01F0301229A40D0F81C329343C0F856
:1005F0001C32CB69B3B9D0F80C329343C0F80C323B
:100600008C894B6864F31F434C6900EBC404C4F845
:1006100040320C890B6864F31F434C6900EBC4043F
:10062000C4F84432CB69012B16D1D0F80C321343F5
:10063000C0F80C320C884B6864F31F434C6900EB24
:10064000C404C4F840320C89CB6864F31F434C697E
:1006500000EBC404C4F844328B69002BD0F8043298
:100660000ED01343C0F804320B69002BD0F81432BB
:1006700008D01343C0F81432096A012904D008E0F5
:100680009343EFE79343F5E7D0F81C121143C0F80A
:100690001C12D0F8001221F00101C0F80012002055
:1006A00010BD0000006400407047000000B58BB032
:1006B000002001210190029003900090CDE90601F5
:1006C00004900891059069460448FFF767FF0028E9
:1006D00001D0FFF70CFF0BB000BD00001C03002091
:1006E00030B590F82040012C05D0022C03D0416A8F
:1006F00041F480215DE00468002955D02469A407F5
:1007000054D04FF4D874056804EB01142D5915F03A
:100710000405956005682D594ED0ED0855600568B3
:100720002C5904F00204D4604FF4DA74056804EB29
:1007300001142D5905F00F05156105682D59C5F3F4
:100740000725956105682C59240C54614FF4DC721F
:10075000046802EB0112A4581C700468A458240A0F
:100760005C700468A458240C9C700468A258120E93
:10077000DA704FF4DE72046802EB0112A4581C71A7
:100780000468A458240A5C710468A458240C9C7161
:100790000468A258120EDA71006881B1016941F053
:1007A00020010161002030BDE468A8E7416A41F4FE
:1007B00000114162012030BD6D0D1560AFE7C168C9
:1007C00041F02001C160EDE72DE9F05F05460068CA
:1007D00000244669D0F804908768D0F80CB0D0F8AF
:1007E00010A0D0F81880F10748D0F90714D00121E3
:1007F0008160B80703D5284600F09FFA0CE078071F
:1008000002D54FF4006407E0380702D54FF4805456
:1008100002E0284600F090FAF80516D529684FF452
:1008200080708860B80503D5284600F088FA0CE08F
:10083000780502D544F4005407E0380502D544F4A5
:10084000804402E0284600F079FAF80316D52968BA
:100850004FF480308860B80303D5284600F071FA61
:100860000CE0780302D544F4004407E0380302D5D5
:1008700044F4803402E0284600F062FA300707D5DD
:100880005FEACB6004D52968102044F40074C86086
:1008900070074FF0080707D55FEA0B7004D528688A
:1008A000C760284600F060F9B00706D52868C06820
:1008B000800702D0284600F059F9700607D55FEA94
:1008C000CA6004D52968102044F480640861B00629
:1008D00007D55FEA0A7004D528680761284600F04A
:1008E000FBF9F00606D528680069800702D0284683
:1008F00000F0F3F9B00308D55FEAC96005D52968AF
:1009000010204860284600F0E9F9F00307D55FEAB7
:10091000097004D528684760284600F013FA3004AF
:1009200046D55FEA497040D5F00504D55FEAC87046
:1009300001D044F00104B00504D55FEA887001D508
:1009400044F00204700504D55FEA487001D544F014
:100950000404300529D518F0700F26D008F0700077
:10096000402815D006DC102809D020280AD03028CD
:1009700016D10AE050280ED0602811D10EE044F0C4
:1009800008040DE044F010040AE044F0200407E0FD
:1009900044F0400404E044F0800401E044F4807436
:1009A0002868816921F0700181612968042048600C
:1009B000002C05D0686A204368622846FFF774FE61
:1009C000BDE8F09F70B5040003D094F8200010B18A
:1009D00004E0012070BD204600F082F82068016824
:1009E00041F00101016000F029FB0546052604E005
:1009F00000F024FB401B0A2811D820684068C0077B
:100A0000F6D02068016821F00201016000F016FBB9
:100A100005460BE000F012FB401B0A2806D9606A6D
:100A200040F40030606284F82060D2E720684068BB
:100A30008007EFD4207E0128206801683DD021F096
:100A400080010160607E01282068016838D021F0B3
:100A500040010160A07E01282068016833D021F0A8
:100A600020010160E07E0128206801682ED041F05D
:100A700010010160207F01282068016829D021F041
:100A800008010160607F01282068016824D021F0FE
:100A900004010160D4E902010843D4E904121143BE
:100AA00008436168491E08432168C86100206062EC
:100AB000012084F82000002070BD41F08001C0E7D3
:100AC00041F04001C5E741F02001CAE721F01001E3
:100AD000CFE741F00801D4E741F00401D9E7000075
:100AE00010B586B0044614216846FFF778FC1B4910
:100AF000206888422FD11A480021026842F0007213
:100B00000260006800F00070059015481038026817
:100B100042F0020202600068022200F0020005902A
:100B20000320CDE90210CDE90002092004906946B6
:100B30000C4800F063F900221146132000F0ECFA93
:100B4000132000F0DBFA00221146142000F0E4FA32
:100B5000142000F0D3FA06B010BD0000006400407D
:100B600040380240000C02407047000010B598B0B9
:100B70000CAB05AA0021FFF7B3FD002861D1059851
:100B8000B3EE030AA0F50071013918D0A0F5007189
:100B9000023959D0A0F50071033978D0B0F5017F42
:100BA0007FD0A0F5007105394BD1BDF83400454C1C
:100BB00040BA00B200EE900AF8EEE00A4DE0BDF84F
:100BC0003400414C40BA00B200EE900AF8EEE00A60
:100BD00043E0608BB8B351E094ED000A8DED0E0A4E
:100BE00094ED010A8DED0F0A94ED020A8DED100AC5
:100BF00094ED030A8DED110A94ED040A8DED120AAD
:100C000094ED050A8DED130A208BADF85000608B32
:100C1000ADF85200E069159094F820008DF8580066
:100C2000142212A96846FFF7A8FB0DF1380C9CE8C6
:100C30000F00FFF75FFCD4ED010A30EE200A84EDCF
:100C4000010A18B010BD36E0BDF834001F4C40BAA0
:100C500000B200EE900AF8EEE00AC4ED050ABDF815
:100C6000320040BA00B200EE900AF8EEE00A80EEE0
:100C7000801A84ED031A208B0028AAD0608B208371
:100C8000BDF8300040BA6083A6E700E009E0BDF897
:100C900034000F4C40BA00B200EE900AF8EEE00AC1
:100CA000DBE7BDF834000B4C40BA00B200EE900A0E
:100CB000F8EEE00AD1E7BDF8300040BA6083208347
:100CC0008AE70000A000002010000020340000206F
:100CD000580000207C0000207047704770470000DB
:100CE00070B5044690F82000012804D0606A40F4F2
:100CF0000020606218E0022084F82000206801686B
:100D000021F00101016000F099F905460EE000BFF5
:100D100000F094F9401B0A2808D9606A40F40030BA
:100D20006062052084F82000012070BD20684068C2
:100D3000C007EDD1606270BD704770477047704763
:100D40007047704770472DE9F0410446876D00F009
:100D500075F9064694F835000025022806D0802053
:100D6000606584F834500120BDE8F0812068016896
:100D700021F0160101602068416921F08001416184
:100D8000206C08B9A06C20B12068016821F008012E
:100D900001602068016821F0010101600CE000F0B1
:100DA0004DF9801B052807D920206065032084F8B1
:100DB000350084F83450D7E720680068C007EED1CA
:100DC00094F85C103F208840B860012084F835001A
:100DD00084F834500020C7E790F83510022903D07A
:100DE0008021416501207047052180F83510006899
:100DF000016821F001010160002070472DE9F84FE2
:100E0000DFF8F8A10022012403254FF00F090AF1B1
:100E1000040BAAF1040E00BF0B6804FA02F633407B
:100E2000B34270D10F7907F00307012F01D0022FD1
:100E300016D187684FEA420805FA08FC27EA0C0732
:100E4000D1F80CC00CFA08FC4CEA070CC0F808C03A
:100E50004768B7430E79C6F3001696403E43466096
:100E60000E79F643B6070AD0C7684FEA420C05FA76
:100E70000CF6B7438E6806FA0CF63E43C6600E7950
:100E800006F00306022E10D1D60800EB8608D8F82B
:100E9000206057074FEAD76C09FA0CF7BE430F6979
:100EA00007FA0CF73743C8F8207006684FEA420C7F
:100EB00005FA0CF7BE430F7907F0030707FA0CF7A2
:100EC000374307604E6816F4403F1CD04C4E3768DD
:100ED00047F480473760366822F0030706F48046FF
:100EE0000096484E07EB060CDCF8086897073F0FA2
:100EF00009FA07F826EA0806DFF80C81404503D115
:100F00004FF0000841E072E0DFF80081404502D177
:100F10004FF0010839E0DFF8F880404502D14FF08A
:100F2000020832E0DFF8EC80404502D14FF00308C0
:100F30002BE0DFF8E480404502D14FF0040824E0C4
:100F4000DFF8D880404502D14FF005081DE0DFF8FA
:100F5000D080404502D14FF0060816E0DFF8C4808B
:100F6000404502D14FF007080FE0DFF8BC80404554
:100F700002D14FF0080808E0DFF8B080404502D108
:100F80004FF0090801E04FF00A0808FA07F848EAAC
:100F90000608CCF80888DAF800605746D1F804C093
:100FA0009E435FEACC2C00D51E433E60DBF8006018
:100FB0005F46D1F804C09E435FEA8C2C00D51E43E7
:100FC0003E60DEF800607746D1F804C09E435FEAD9
:100FD0008C3C00D51E433E60084F083F3E68D1F868
:100FE00004C09E435FEACC3C00D51E433E60521CC9
:100FF000102AFFF411AFBDE8F88F0000083C014053
:101000004438024000300140000002400004024029
:1010100000080240000C0240001002400014024090
:1010200000180240001C0240002002400024024040
:101030000AB1816170470904FBE70000014880683C
:1010400070470000000000200248816802781144C7
:1010500081607047000000200B4810B5016841F422
:1010600000710160016841F480610160016841F430
:1010700080710160032000F06FF80F2000F006F887
:1010800000F024F8002010BD003C024070B50D4D6A
:1010900004464FF47A712878B1FBF0F00A490968E8
:1010A000B1FBF0F000F024FB48B9102C07D200226D
:1010B0002146501E00F030F800206C6070BD012009
:1010C00070BD0000000000200C0000200A4808B598
:1010D000016841F480410160006800F480400090A4
:1010E0000548001F016841F080510160006800F070
:1010F0008050009008BD000044380240002809DB01
:1011000000F01F02012191404009800000F1E02021
:10111000C0F8001170470000F0B40E4B1B680C467D
:10112000C3F30223C3F10705042D00D90425191DBB
:10113000072901D2002300E0DB1E012606FA05F193
:10114000491E214099409E40761E16403143F0BC16
:1011500000F0DFBE0CED00E0064900F00702086871
:101160004FF6FF03184040EA0220034A104308608C
:10117000704700000CED00E00000FA052DE9F8438F
:101180001748016841F0805101600068154F00F078
:101190008050012600903E64FFF750FF05464FF453
:1011A0007A78114C05E000BFFFF748FF401B40452F
:1011B0000DD86068C003F7D57E64FFF73FFF054692
:1011C000464607E0FFF73AFF401BB04202D9032032
:1011D000BDE8F88360688003F4D50020F8E70000DC
:1011E0004038024000000E42007000402DE9F047F8
:1011F0000E46050065D0DFF81481D8F80000F7B27C
:1012000000F00F00B04207D288F80070D8F8000054
:1012100000F00F00B04254D128683D4C810712D530
:10122000400703D5206840F4E0502060287800078C
:1012300003D5206840F4604020602068A96820F051
:10124000F000084320602878C0072DD03049686836
:101250000839012812D0022813D0032811D00968B8
:10126000890700292DDA216821F00301014321605B
:10127000FFF7E4FE814641F2883A0EE009688903EF
:10128000EFE709688901ECE7FFF7D8FEA0EB090159
:10129000514502D90320BDE8F0872068696800F055
:1012A0000C00B0EB810FEFD1D8F80010404601F0F0
:1012B0000F01B14207D90770006800F00F00B0427B
:1012C00001D00120E7E72878400705D52068E968C4
:1012D00020F4E050084320602878000706D52068F5
:1012E000296920F4604040EAC100206000F018F84D
:1012F0002168084AC1F30311515CC84006490860DF
:1013000006480068FFF7C2FE0020C4E7003C024028
:1013100008380240362100080C000020040000209C
:10132000154810B5006810F00C02144813D0144989
:10133000042A0FD0082A0ED10F4C241F22682368DC
:1013400002F03F025B0207D52068C0F38810A0FBC3
:10135000010106E0084610BD2168C1F38811A1FB18
:1013600000010023FEF792FF2168C1F30141491CEF
:101370004900B0FBF1F010BD083802400024F40031
:1013800040787D012DE9F84F04006ED02078DFF819
:101390004C93C007A9F104054AD009F10400016883
:1013A000C1F38101012908D00068C0F3810002283F
:1013B0000AD1D9F80000400206D52868800337D545
:1013C00060680028E1D033E06068B0F5803F10D05D
:1013D000B0F5A02F286810D020F48030286028684D
:1013E00020F4802028606068A8B1FFF727FE064639
:1013F0000DE0286840F48030F4E740F48020286055
:10140000F7E700BFFFF71AFE801B642873D828682F
:101410008003F7D50CE0FFF711FE064605E000BF9C
:10142000FFF70CFE801B6428F0D828688003F7D4EF
:101430002078DFF8AC8280074FF0000A3ED5A7483D
:10144000001D016811F00C0F08D00068C0F3810086
:1014500002280BD1D9F80000400207D42868800781
:1014600016D5E068012800D112E033E1E068B8B198
:101470000120C8F80000FFF7E1FD064605E000BFC7
:10148000FFF7DCFD801B0228C0D828688007F7D54D
:101490002868216920F0F80040EAC10028600DE0CA
:1014A000C8F800A0FFF7CAFD064604E0FFF7C6FD36
:1014B000801B02281FD828688007F7D420780007EF
:1014C00022D5864F87486169703771B1012101606B
:1014D000FFF7B4FD064604E0FFF7B0FD801B0228CD
:1014E00009D838688007F7D50EE0C0F800A0FFF7EC
:1014F000A5FD064605E082E0FFF7A0FD801B02285F
:101500007DD838688007F7D42078400768D5DFF8A1
:10151000CCB100270BF13C0BDBF80000C0000BD472
:10152000DBF8001041F08051CBF80010DBF8000030
:10153000012700F0805000906B4E3068C00510D439
:10154000306840F480703060FFF778FD009005E06F
:10155000FFF774FD0099401A022850D83068C00582
:10156000F6D55E4EA0686C3601280FD0052830688D
:1015700010D020F001003060306820F004003060AE
:10158000A068B8B1FFF75AFD00900FE0306840F056
:101590000100F4E740F004003060F7E7FFF74EFD8C
:1015A0000099411A41F28830814266D8306880073C
:1015B000F4D50EE0FFF742FD009007E0FFF73EFD97
:1015C0000099411A41F28830814256D8306880072C
:1015D000F4D42FB1DBF8001021F08051CBF80010CB
:1015E000A069C8B33D49091D0968C1F381010229F9
:1015F0004AD00228504607D0C8F8600000E03CE01E
:10160000FFF71CFD04463BE04746C8F86000FFF7C3
:1016100015FD064605E000BFFFF710FD801B022800
:101620002BD828688001F7D4D4E907010843A16AC0
:101630002E4A490802EB0141626A41EA82110843DD
:1016400094F82C1040EA0161C9F8001001203866B6
:10165000FFF7F4FC044606E03EE000BFFFF7EEFCB7
:10166000001B022809D828688001F7D534E000BFA4
:10167000FFF7E4FC001B022802D90320BDE8F88F25
:1016800028688001F4D427E00128F7D0D9F80000B9
:10169000E26900F4800191421CD1226A00F03F010E
:1016A000914217D147F6C071626A0140B1EB821FC7
:1016B00010D1A26A4FF0FF3300F4403103EB520225
:1016C000B1EB024F06D194F82C1000F07060B0EB33
:1016D000016F01D00120D1E70020CFE7043802409C
:1016E00000004742800E4742007000400000FFFFAC
:1016F00010B5401EB0F1807F01D3012010BD4FF026
:10170000E02460610F21601700F003FC0020A0615D
:1017100007202061002010BD70477047F8B50168B0
:1017200004460868CA684B6910F00F0F4FF00005B7
:1017300059D003F0010602F49077374365D0C10712
:1017400005D0D10503D5216C41F001012164410789
:1017500005D5D90703D0216C41F00201216481072E
:1017600005D5D90703D0216C41F00401216401079C
:1017700007D502F02001314303D0216C41F008016C
:101780002164216C00293AD0800604D5900602D548
:10179000204600F056FB20684069216CC0F38010A1
:1017A000090700D460B3204600F024FB206840699C
:1017B000400621D52068143050E8001F21F0400178
:1017C00040E80012002AF5D1A06BA8B16C49016570
:1017D000A06BFFF701FB002811D0A06B016D01B0D9
:1017E000BDE8F040084783060FD593060DD5204687
:1017F000BDE8F84000F025BB2046FFF78EFFF8BD9E
:101800002046FFF78AFF2564F8BD266B2023012EB2
:1018100079D1C60677D5D60675D508684868009090
:101820004869400640D5A16B086840680004000C78
:10183000EAD0A28D8242E7D9E085C869B0F5807F01
:101840002DD020680C3050E8001F21F4807140E852
:101850000012002AF5D12068143050E8001F21F052
:10186000010140E80012002AF5D12068143050E848
:10187000001F21F0400140E80012002AF5D184F851
:101880003E30256320680C3050E8001F21F0100125
:1018900040E80012002AF5D1A06BFFF754FAA08DA2
:1018A000E18D401A81B229E0A08DE18D401A81B20C
:1018B000E08D0028A8D00029A6D020680C3050E880
:1018C000002F22F4907240E80026002EF5D1206807
:1018D000143050E8002F22F0010240E80026002ECC
:1018E000F5D184F83E30256320680C3050E8002F95
:1018F00022F0100240E80023002BF5D12046FFF72C
:101900000BFFF8BDFFE705062BD5150629D594F882
:101910003D002128F5D1A068B0F5805F01D1206994
:10192000B0B1206A411C2162216800784860E08CD7
:10193000401E0004000CE084E3D12068C16821F05F
:101940008001C1602068C16841F04001C160D8E7F2
:10195000206A0088C0F308004860206A801C20626A
:10196000E5E74006CDD55006CBD5CA68204622F023
:101970004002CA6084F83D3000F005F8C1E700007D
:10198000E51D000870477047FEE700000D4810B5E0
:101990000B4901601021416000218160C16001613B
:1019A0004161017641768176C17601774177FFF713
:1019B00009F8002803D0BDE81040FEF798BD10BD1F
:1019C000006400401C030020FEE7000029489FED52
:1019D0002B0ADFED2B1A80ED020A9FED2A2AC0EDBB
:1019E000031A80ED042A80ED050ADFED210A9FED40
:1019F000221A80ED060A0021C0EC020AC16178308B
:101A000080ED020AC0ED031A80ED042A80ED050A7C
:101A100080ED060AC0EC020AC161783080ED020A4E
:101A2000C0ED031A80ED042A80ED050A80ED060A58
:101A3000C0EC020AC161783080ED020AC0ED031AE1
:101A400080ED042A80ED050A80ED060AC0EC020A4A
:101A5000C161783080ED020AC0ED031A80ED042ADE
:101A600080ED050A80ED060AC0EC020AC1617047EC
:101A70006666A63F140100208FC2F53C00000000FE
:101A800000007A4600806D453C48DFED3B2A9FED23
:101A90003C0AC0ED002A9FED3B3A80ED010ADFEDE4
:101AA0003A0A80ED023A9FED391AC0ED030A80ED43
:101AB000041A80ED050A80ED060A0021B3EE042A1F
:101AC000C161DFED331A80ED092AC0ED081A7830C4
:101AD000C0ED002A80ED010A80ED023AC0ED030A54
:101AE00080ED041A80ED050A80ED060AC16180EDE3
:101AF000092AC0ED081A7830C0ED002A80ED010AED
:101B000080ED023AC0ED030A80ED041A80ED050A6B
:101B100080ED060AC16180ED092AC0ED081A78300F
:101B2000C0ED002A80ED010A80ED023AC0ED030A03
:101B300080ED041A80ED050A80ED060AC16180ED92
:101B4000092AC0ED081A7830F7EE002AC0ED002A05
:101B5000DFED102A80ED010AC0ED022AC0ED030A74
:101B600080ED041A80ED050A80ED060AC16180ED62
:101B7000092AC0ED081A704785EBD13EC400002049
:101B80000000000017B7D13800007A460000FA4480
:101B9000000048420AD7233C3B489FED3A3AB1EE59
:101BA000041A80ED003A9FED390A80ED011ADFED4D
:101BB000381A80ED020A9FED372AC0ED031A80ED36
:101BC000042A80ED050A80ED060A0021DFED320AC5
:101BD000C161DFED322AC0ED090AC0ED082A783074
:101BE00080ED003A80ED011A80ED020AC0ED031A83
:101BF00080ED042A80ED050A80ED060AC161C0ED82
:101C0000090AC0ED082A783080ED003A80ED011A0B
:101C100080ED020AC0ED031A80ED042A80ED050A6A
:101C200080ED060AC161C0ED090AC0ED082A7830CE
:101C300080ED003A80ED011A80ED020AC0ED031A32
:101C400080ED042A80ED050A80ED060AC161C0ED31
:101C5000090AC0ED082A9FED123A783080ED003A6B
:101C600080ED011A80ED020AC0ED031A80ED042A0E
:101C700080ED050A80ED060AC161C0ED090AC0EDDC
:101C8000082A704700007A43EC00002000000000A2
:101C900000007A4600409C4500007A440000C8439A
:101CA00000005C43B5EEC00AF1EE10FA01D2B1EECD
:101CB000400A7047FEE7704700B5FFF787FEFFF761
:101CC0006BFF5DF804EBFFF7DFBE0000164930B58F
:101CD0009FED140A01F1240281ED010A01F148038C
:101CE00082ED010A01F16C0483ED010A01F1900516
:101CF00084ED010A85ED010A012081F8200082F8B7
:101D0000200083F8200084F8200085F8200081ED71
:101D1000020A82ED020A83ED020A84ED020A85EDD1
:101D2000020A30BD00000000100000207047FFF7DD
:101D30008BB9000030B593B030216846FEF74FFBF9
:101D400014210CA8FEF74BFB20480025016841F048
:101D500080510160006800F0805011901C480168BB
:101D600041F4404101600068022400F440401190B9
:101D70000120039010200490009406940820CDE9DF
:101D80000750B420CDE9090404200B906846FFF702
:101D9000F9FA08B172B6FEE7FFF7F0F908B172B6CA
:101DA000FEE70CA90F2081E831004FF4A0500F90FE
:101DB0004FF48050109005210CA8FFF717FA002867
:101DC00001D072B6FEE713B030BD000040380240CB
:101DD000007000400248016841F4700101607047E2
:101DE00088ED00E010B5806B0021C185C184FFF74C
:101DF00094FC10BD01680C3151E8002F22F4907260
:101E000041E80023002BF5D10168143151E8002F7F
:101E100022F0010241E80023002BF5D1016B0129DA
:101E200009D101680C3151E8002F22F0100241E87D
:101E30000023002BF5D1202180F83E100021016302
:101E4000704708B590F83E10222901D0022008BD45
:101E500082684FF480539A4201D1016921B1816AAD
:101E60009A421BD04AB10AE00268816A5268C2F302
:101E700008020A80816A891C08E0026972B102685E
:101E8000526802F07F020A70816A491C8162C18D2A
:101E9000491E0904090CC18503D019E00268526883
:101EA000F1E70168CA6822F02002CA600168CA68C6
:101EB00022F48072CA6001684A6922F001024A6114
:101EC000202180F83E10016B012903D0FFF75AFD55
:101ED000002008BD0021016301680C3151E8002F8A
:101EE00022F0100241E80023002BF5D101680A68B6
:101EF000D20602D50A6849680091818DFFF70CFC73
:101F0000E6E700000148FFF709BC00004403002099
:101F1000FEE70907090E002804DB00F1E02080F845
:101F20000014704700F00F0000F1E02080F8141D4D
:101F300070470000F0B53F4887B00024016841F0C9
:101F4000400101600068012500F04000059002207A
:101F50000090CDE90154384F694638460394FEF7A6
:101F60004DFF012202213846FFF762F8042000905D
:101F7000CDE90154694638460394FEF73FFF01223C
:101F800004213846FFF754F808200090CDE90154A9
:101F9000694638460394FEF731FF0122082138468E
:101FA000FFF746F810200090CDE901546946384605
:101FB0000394FEF723FF012210213846FFF738F87B
:101FC00020200090CDE90154694638460394FEF77D
:101FD00015FF012220213846FFF72AF84020009003
:101FE000CDE90154694638460394FEF707FF012204
:101FF00040213846FFF71CF880200090CDE90154BD
:10200000694638460394FEF7F9FE012280213846DE
:10201000FFF70EF82E020096CDE9015469463846C6
:102020000394FEF7EBFE012231463846FFF700F835
:1020300007B0F0BD3038024000180240FFF70CF83E
:10204000FFF778FEFEF73EFA0520FFF785F800F06F
:1020500007F8FFF76FFFFFF739FEFFF72DFEFEE7EA
:1020600070B52E4886B00024016841F0200101605F
:10207000016801F020010591016841F01001016043
:10208000016801F010010591016841F0040101604F
:102090000068029400F0040005900220CDE90004DD
:1020A00069461F480394FEF7A9FE2025CDE9005498
:1020B0001C4E0294694630460394FEF79FFE402072
:1020C000CDE900040294694630460394FEF796FE7B
:1020D0000420CDE90004144E02946946304603946E
:1020E000FEF78CFE0820CDE90004029469463046D4
:1020F0000394FEF783FE1020CDE9000402946946A4
:1021000030460394FEF77AFECDE900540294694606
:1021100030460394FEF772FE06B070BD30380240C0
:102120000014024000100240000802404FF04070CE
:10213000E1EE100A704700000000000000000102FC
:1021400003040607080900006821000800000020B9
:1021500010000000E80100087821000810000020AD
:10216000D80900000402000801000000100000006F
:08217000000000000024F4004F
:04000005080001AD41
:00000001FF
